{
  "address": "0x67d269191c92Caf3cD7723F116c85e6E9bf55933",
  "abi": [
    {
      "inputs": [
        {
          "internalType": "address",
          "name": "tokenAddress",
          "type": "address"
        }
      ],
      "stateMutability": "nonpayable",
      "type": "constructor"
    },
    {
      "anonymous": false,
      "inputs": [
        {
          "indexed": false,
          "internalType": "address",
          "name": "buyer",
          "type": "address"
        },
        {
          "indexed": false,
          "internalType": "uint256",
          "name": "amountOfETH",
          "type": "uint256"
        },
        {
          "indexed": false,
          "internalType": "uint256",
          "name": "amountOfTokens",
          "type": "uint256"
        }
      ],
      "name": "BuyTokens",
      "type": "event"
    },
    {
      "anonymous": false,
      "inputs": [
        {
          "indexed": true,
          "internalType": "address",
          "name": "previousOwner",
          "type": "address"
        },
        {
          "indexed": true,
          "internalType": "address",
          "name": "newOwner",
          "type": "address"
        }
      ],
      "name": "OwnershipTransferred",
      "type": "event"
    },
    {
      "anonymous": false,
      "inputs": [
        {
          "indexed": false,
          "internalType": "address",
          "name": "buyer",
          "type": "address"
        },
        {
          "indexed": false,
          "internalType": "uint256",
          "name": "amountOfETH",
          "type": "uint256"
        },
        {
          "indexed": false,
          "internalType": "uint256",
          "name": "amountOfTokens",
          "type": "uint256"
        }
      ],
      "name": "SellTokens",
      "type": "event"
    },
    {
      "inputs": [],
      "name": "buyTokens",
      "outputs": [],
      "stateMutability": "payable",
      "type": "function"
    },
    {
      "inputs": [],
      "name": "owner",
      "outputs": [
        {
          "internalType": "address",
          "name": "",
          "type": "address"
        }
      ],
      "stateMutability": "view",
      "type": "function"
    },
    {
      "inputs": [],
      "name": "renounceOwnership",
      "outputs": [],
      "stateMutability": "nonpayable",
      "type": "function"
    },
    {
      "inputs": [
        {
          "internalType": "uint256",
          "name": "amount",
          "type": "uint256"
        }
      ],
      "name": "sellTokens",
      "outputs": [],
      "stateMutability": "nonpayable",
      "type": "function"
    },
    {
      "inputs": [],
      "name": "tokensPerEth",
      "outputs": [
        {
          "internalType": "uint256",
          "name": "",
          "type": "uint256"
        }
      ],
      "stateMutability": "view",
      "type": "function"
    },
    {
      "inputs": [
        {
          "internalType": "address",
          "name": "newOwner",
          "type": "address"
        }
      ],
      "name": "transferOwnership",
      "outputs": [],
      "stateMutability": "nonpayable",
      "type": "function"
    },
    {
      "inputs": [],
      "name": "withdraw",
      "outputs": [],
      "stateMutability": "nonpayable",
      "type": "function"
    },
    {
      "inputs": [],
      "name": "yourToken",
      "outputs": [
        {
          "internalType": "contract YourToken",
          "name": "",
          "type": "address"
        }
      ],
      "stateMutability": "view",
      "type": "function"
    }
  ],
  "transactionHash": "0x9474a8a79e9a4ac0730e7a05b6c6a7cd7b96968f601defdb70d18c1546d7817d",
  "args": [
    "0xc5a5C42992dECbae36851359345FE25997F5C42d"
  ],
  "solcInputHash": "0ccc45cd207763fe5777780559974768",
  "bytecode": "0x608060405234801561001057600080fd5b50604051610b9e380380610b9e83398101604081905261002f916100ad565b6100383361005d565b600180546001600160a01b0319166001600160a01b03929092169190911790556100db565b600080546001600160a01b038381166001600160a01b0319831681178455604051919092169283917f8be0079c531659141344cd1fd0a4f28419497f9722a3daafe3b4186f6b6457e09190a35050565b6000602082840312156100be578081fd5b81516001600160a01b03811681146100d4578182fd5b9392505050565b610ab4806100ea6000396000f3fe60806040526004361061007b5760003560e01c80638da5cb5b1161004e5780638da5cb5b14610109578063cbdd69b514610127578063d0febe4c1461014a578063f2fde38b1461015257600080fd5b80633ccfd60b146100805780636c11bcd314610097578063715018a6146100b75780637879e84b146100cc575b600080fd5b34801561008c57600080fd5b50610095610172565b005b3480156100a357600080fd5b506100956100b23660046109ce565b610298565b3480156100c357600080fd5b506100956105fc565b3480156100d857600080fd5b506001546100ec906001600160a01b031681565b6040516001600160a01b0390911681526020015b60405180910390f35b34801561011557600080fd5b506000546001600160a01b03166100ec565b34801561013357600080fd5b5061013c606481565b604051908152602001610100565b610095610632565b34801561015e57600080fd5b5061009561016d366004610980565b610895565b6000546001600160a01b031633146101a55760405162461bcd60e51b815260040161019c906109fe565b60405180910390fd5b47806102045760405162461bcd60e51b815260206004820152602860248201527f56656e646f7220646f6573206e6f74206861766520616e792045544820746f20604482015267776974686472617760c01b606482015260840161019c565b6040513390600090829084908381818185875af1925050503d8060008114610248576040519150601f19603f3d011682016040523d82523d6000602084013e61024d565b606091505b50509050806102935760405162461bcd60e51b81526020600482015260126024820152714661696c656420746f20776974686472617760701b604482015260640161019c565b505050565b600081116102f85760405162461bcd60e51b815260206004820152602760248201527f4d7573742073656c6c206120746f6b656e20616d6f756e7420677265617465726044820152660207468616e20360cc1b606482015260840161019c565b6001546040516370a0823160e01b81523360048201819052916000916001600160a01b03909116906370a082319060240160206040518083038186803b15801561034157600080fd5b505afa158015610355573d6000803e3d6000fd5b505050506040513d601f19601f8201168201806040525081019061037991906109e6565b9050828110156103cb5760405162461bcd60e51b815260206004820181905260248201527f5573657220646f6573206e6f74206861766520656e6f75676820746f6b656e73604482015260640161019c565b60006103d8606485610a33565b90504781811161042a5760405162461bcd60e51b815260206004820152601f60248201527f56656e646f7220646f6573206e6f74206861766520656e6f7567682045544800604482015260640161019c565b6001546040516323b872dd60e01b81526001600160a01b0386811660048301523060248301526044820188905260009216906323b872dd90606401602060405180830381600087803b15801561047f57600080fd5b505af1158015610493573d6000803e3d6000fd5b505050506040513d601f19601f820116820180604052508101906104b791906109ae565b9050806105065760405162461bcd60e51b815260206004820152601960248201527f4661696c656420746f207472616e7366657220746f6b656e7300000000000000604482015260640161019c565b6000856001600160a01b03168460405160006040518083038185875af1925050503d8060008114610553576040519150601f19603f3d011682016040523d82523d6000602084013e610558565b606091505b50509050806105a95760405162461bcd60e51b815260206004820152601760248201527f4661696c656420746f2073656e64206261636b20657468000000000000000000604482015260640161019c565b604080516001600160a01b0388168152602081018690529081018890527fa24838acd4af5195a2396965dae5abf54e84e8c19f5698bb966ae64e29994ee59060600160405180910390a150505050505050565b6000546001600160a01b031633146106265760405162461bcd60e51b815260040161019c906109fe565b6106306000610930565b565b34806106805760405162461bcd60e51b815260206004820152601b60248201527f53656e6420736f6d652045544820746f2062757920746f6b656e730000000000604482015260640161019c565b600061068d606483610a53565b6001546040516370a0823160e01b81523060048201529192506000916001600160a01b03909116906370a082319060240160206040518083038186803b1580156106d657600080fd5b505afa1580156106ea573d6000803e3d6000fd5b505050506040513d601f19601f8201168201806040525081019061070e91906109e6565b90508181101561076b5760405162461bcd60e51b815260206004820152602260248201527f56656e646f7220646f6573206e6f74206861766520656e6f75676820746f6b656044820152616e7360f01b606482015260840161019c565b60015460405163a9059cbb60e01b8152336004820181905260248201859052916000916001600160a01b039091169063a9059cbb90604401602060405180830381600087803b1580156107bd57600080fd5b505af11580156107d1573d6000803e3d6000fd5b505050506040513d601f19601f820116820180604052508101906107f591906109ae565b9050806108445760405162461bcd60e51b815260206004820152601860248201527f4661696c656420746f207472616e7366657220746f6b656e0000000000000000604482015260640161019c565b604080516001600160a01b0384168152602081018790529081018590527f0a37b72bb67eee30e09084cf386f8a17817c57f620c3ab95fb25d6a20356ec779060600160405180910390a15050505050565b6000546001600160a01b031633146108bf5760405162461bcd60e51b815260040161019c906109fe565b6001600160a01b0381166109245760405162461bcd60e51b815260206004820152602660248201527f4f776e61626c653a206e6577206f776e657220697320746865207a65726f206160448201526564647265737360d01b606482015260840161019c565b61092d81610930565b50565b600080546001600160a01b038381166001600160a01b0319831681178455604051919092169283917f8be0079c531659141344cd1fd0a4f28419497f9722a3daafe3b4186f6b6457e09190a35050565b600060208284031215610991578081fd5b81356001600160a01b03811681146109a7578182fd5b9392505050565b6000602082840312156109bf578081fd5b815180151581146109a7578182fd5b6000602082840312156109df578081fd5b5035919050565b6000602082840312156109f7578081fd5b5051919050565b6020808252818101527f4f776e61626c653a2063616c6c6572206973206e6f7420746865206f776e6572604082015260600190565b600082610a4e57634e487b7160e01b81526012600452602481fd5b500490565b6000816000190483118215151615610a7957634e487b7160e01b81526011600452602481fd5b50029056fea2646970667358221220ebe1675f22e91a455cfafb01c10a8dbc5e19272cc6d28c58bf22e35b7239331664736f6c63430008040033",
  "devdoc": {
    "kind": "dev",
    "methods": {
      "owner()": {
        "details": "Returns the address of the current owner."
      },
      "renounceOwnership()": {
        "details": "Leaves the contract without owner. It will not be possible to call `onlyOwner` functions anymore. Can only be called by the current owner. NOTE: Renouncing ownership will leave the contract without an owner, thereby removing any functionality that is only available to the owner."
      },
      "transferOwnership(address)": {
        "details": "Transfers ownership of the contract to a new account (`newOwner`). Can only be called by the current owner."
      }
    },
    "version": 1
  },
  "userdoc": {
    "kind": "user",
    "methods": {
      "buyTokens()": {
        "notice": "Allow users to buy tokens"
      },
      "sellTokens(uint256)": {
        "notice": "Allow users to sell tokens back to the vendor"
      },
      "tokensPerEth()": {
        "notice": "Our token price"
      },
      "withdraw()": {
        "notice": "Allow the owner to withdraw ETH"
      },
      "yourToken()": {
        "notice": "Reference to our ERC20 token contract"
      }
    },
    "version": 1
  },
  "storageLayout": {
    "storage": [
      {
        "astId": 7,
        "contract": "contracts/Vendor.sol:Vendor",
        "label": "_owner",
        "offset": 0,
        "slot": "0",
        "type": "t_address"
      },
      {
        "astId": 784,
        "contract": "contracts/Vendor.sol:Vendor",
        "label": "yourToken",
        "offset": 0,
        "slot": "1",
        "type": "t_contract(YourToken)1037"
      }
    ],
    "types": {
      "t_address": {
        "encoding": "inplace",
        "label": "address",
        "numberOfBytes": "20"
      },
      "t_contract(YourToken)1037": {
        "encoding": "inplace",
        "label": "contract YourToken",
        "numberOfBytes": "20"
      }
    }
  }
}