{
  "_format": "hh-sol-artifact-1",
  "contractName": "Staker",
  "sourceName": "contracts/Staker.sol",
  "abi": [
    {
      "inputs": [
        {
          "internalType": "address",
          "name": "exampleExternalContractAddress",
          "type": "address"
        }
      ],
      "stateMutability": "nonpayable",
      "type": "constructor"
    },
    {
      "anonymous": false,
      "inputs": [
        {
          "indexed": false,
          "internalType": "address",
          "name": "sender",
          "type": "address"
        },
        {
          "indexed": false,
          "internalType": "uint256",
          "name": "value",
          "type": "uint256"
        }
      ],
      "name": "Stake",
      "type": "event"
    },
    {
      "inputs": [
        {
          "internalType": "address",
          "name": "",
          "type": "address"
        }
      ],
      "name": "balances",
      "outputs": [
        {
          "internalType": "uint256",
          "name": "",
          "type": "uint256"
        }
      ],
      "stateMutability": "view",
      "type": "function"
    },
    {
      "inputs": [],
      "name": "deadline",
      "outputs": [
        {
          "internalType": "uint256",
          "name": "",
          "type": "uint256"
        }
      ],
      "stateMutability": "view",
      "type": "function"
    },
    {
      "inputs": [],
      "name": "exampleExternalContract",
      "outputs": [
        {
          "internalType": "contract ExampleExternalContract",
          "name": "",
          "type": "address"
        }
      ],
      "stateMutability": "view",
      "type": "function"
    },
    {
      "inputs": [],
      "name": "execute",
      "outputs": [],
      "stateMutability": "nonpayable",
      "type": "function"
    },
    {
      "inputs": [],
      "name": "openForWithdraw",
      "outputs": [
        {
          "internalType": "bool",
          "name": "",
          "type": "bool"
        }
      ],
      "stateMutability": "view",
      "type": "function"
    },
    {
      "inputs": [],
      "name": "stake",
      "outputs": [],
      "stateMutability": "payable",
      "type": "function"
    },
    {
      "inputs": [],
      "name": "threshold",
      "outputs": [
        {
          "internalType": "uint256",
          "name": "",
          "type": "uint256"
        }
      ],
      "stateMutability": "view",
      "type": "function"
    },
    {
      "inputs": [],
      "name": "timeLeft",
      "outputs": [
        {
          "internalType": "uint256",
          "name": "",
          "type": "uint256"
        }
      ],
      "stateMutability": "view",
      "type": "function"
    },
    {
      "inputs": [
        {
          "internalType": "address payable",
          "name": "_to",
          "type": "address"
        }
      ],
      "name": "withdraw",
      "outputs": [],
      "stateMutability": "nonpayable",
      "type": "function"
    },
    {
      "stateMutability": "payable",
      "type": "receive"
    }
  ],
  "bytecode": "0x6080604052610011426203f480610092565b60025534801561002057600080fd5b5060405161095f38038061095f83398101604081905261003f91610064565b600080546001600160a01b0319166001600160a01b03929092169190911790556100b6565b600060208284031215610075578081fd5b81516001600160a01b038116811461008b578182fd5b9392505050565b600082198211156100b157634e487b7160e01b81526011600452602481fd5b500190565b61089a806100c56000396000f3fe60806040526004361061008a5760003560e01c806342cde4e81161005957806342cde4e81461011157806351cff8d91461012d578063614619541461014d5780639876a643146101625780639f75f2271461018c57600080fd5b80631300a6d11461009e57806327e235e3146100c657806329dcb0cf146100f35780633a4b66f11461010957600080fd5b36610099576100976101c4565b005b600080fd5b3480156100aa57600080fd5b506100b3610387565b6040519081526020015b60405180910390f35b3480156100d257600080fd5b506100b36100e136600461078d565b60016020526000908152604090205481565b3480156100ff57600080fd5b506100b360025481565b6100976101c4565b34801561011d57600080fd5b506100b3670de0b6b3a764000081565b34801561013957600080fd5b5061009761014836600461078d565b6103ab565b34801561015957600080fd5b5061009761065a565b34801561016e57600080fd5b5060035461017c9060ff1681565b60405190151581526020016100bd565b34801561019857600080fd5b506000546101ac906001600160a01b031681565b6040516001600160a01b0390911681526020016100bd565b6000806101cf610387565b9050811561022f57801561022a5760405162461bcd60e51b815260206004820181905260248201527f446561646c696e6520686173206e6f74206265656e207061737365642079657460448201526064015b60405180910390fd5b61027f565b6000811161027f5760405162461bcd60e51b815260206004820152601a60248201527f446561646c696e6520697320616c7265616479207061737365640000000000006044820152606401610221565b60008060009054906101000a90046001600160a01b03166001600160a01b0316639d9a7fe96040518163ffffffff1660e01b815260040160206040518083038186803b1580156102ce57600080fd5b505afa1580156102e2573d6000803e3d6000fd5b505050506040513d601f19601f8201168201806040525081019061030691906107b0565b905080156103265760405162461bcd60e51b8152600401610221906107d0565b3360009081526001602052604081208054349290610345908490610807565b9091555050604080513381523460208201527febedb8b3c678666e7f36970bc8f57abf6d8fa2e828c0da91ea5b75bf68ed101a910160405180910390a1505050565b600060025442106103985750600090565b426002546103a6919061081f565b905090565b600160006103b7610387565b9050811561041257801561040d5760405162461bcd60e51b815260206004820181905260248201527f446561646c696e6520686173206e6f74206265656e20706173736564207965746044820152606401610221565b610462565b600081116104625760405162461bcd60e51b815260206004820152601a60248201527f446561646c696e6520697320616c7265616479207061737365640000000000006044820152606401610221565b60008060009054906101000a90046001600160a01b03166001600160a01b0316639d9a7fe96040518163ffffffff1660e01b815260040160206040518083038186803b1580156104b157600080fd5b505afa1580156104c5573d6000803e3d6000fd5b505050506040513d601f19601f820116820180604052508101906104e991906107b0565b905080156105095760405162461bcd60e51b8152600401610221906107d0565b60035460ff166105535760405162461bcd60e51b81526020600482015260156024820152744e6f74206f70656e20666f7220776974686472617760581b6044820152606401610221565b33600090815260016020526040902054806105a35760405162461bcd60e51b815260206004820152601060248201526f07573657242616c616e636520697320360841b6044820152606401610221565b33600090815260016020526040808220829055516001600160a01b0387169083908381818185875af1925050503d80600081146105fc576040519150601f19603f3d011682016040523d82523d6000602084013e610601565b606091505b50509050806106525760405162461bcd60e51b815260206004820152601960248201527f4661696c656420746f2073656e6420746f2061646472657373000000000000006044820152606401610221565b505050505050565b60008060009054906101000a90046001600160a01b03166001600160a01b0316639d9a7fe96040518163ffffffff1660e01b815260040160206040518083038186803b1580156106a957600080fd5b505afa1580156106bd573d6000803e3d6000fd5b505050506040513d601f19601f820116820180604052508101906106e191906107b0565b905080156107015760405162461bcd60e51b8152600401610221906107d0565b47670de0b6b3a7640000811061077c5760008054906101000a90046001600160a01b03166001600160a01b031663522e1177826040518263ffffffff1660e01b81526004016000604051808303818588803b15801561075f57600080fd5b505af1158015610773573d6000803e3d6000fd5b50505050505050565b6003805460ff191660011790555050565b60006020828403121561079e578081fd5b81356107a98161084c565b9392505050565b6000602082840312156107c1578081fd5b815180151581146107a9578182fd5b6020808252601c908201527f5374616b696e6720706572696f642068617320636f6d706c6574656400000000604082015260600190565b6000821982111561081a5761081a610836565b500190565b60008282101561083157610831610836565b500390565b634e487b7160e01b600052601160045260246000fd5b6001600160a01b038116811461086157600080fd5b5056fea2646970667358221220d3cec855384f30a62fb133d6147c7e881e9f0de4c5442966b33fb82dd1e4a1cd64736f6c63430008040033",
  "linkReferences": {},
  "deployedLinkReferences": {}
}